S0180000536D61727420486F6D6520536C6176652E7372656341
S11300000C942A000C9434000C9434000C943400A6
S11300100C9434000C9434000C9434000C9434008C
S11300200C9434000C9434000C9434000C9434007C
S11300300C946B010C9434000C9434000C94340034
S11300400C9434000C9434000C9434000C9434005C
S11300500C94340011241FBECFE5D8E0DEBFCDBF21
S11300600E9459000C94A5010C9400000E949E016A
S1130070FFCF41E062E082E00E945E00089562E00A
S113008082E00E94CF00089562E082E00E940701AE
S1130090089541E063E083E00E945E00089563E018
S11300A083E00E94CF00089563E083E00E9407018B
S11300B008950E94360080E090E00895442319F0EA
S11300C04130C9F10895813091F028F08230D9F09F
S11300D0833029F108952AB381E090E002C0880FAB
S11300E0991F6A95E2F7809582238ABB089527B306
S11300F081E090E002C0880F991F6A95E2F780952D
S1130100822387BB089524B381E090E002C0880F66
S1130110991F6A95E2F78095822384BB089521B3E1
S113012081E090E002C0880F991F6A95E2F78095FC
S1130130822381BB0895813089F028F08230C9F090
S1130140833011F108952AB381E090E002C0880F52
S1130150991F6A95E2F7822B8ABB089527B381E041
S113016090E002C0880F991F6A95E2F7822B87BB43
S1130170089524B381E090E002C0880F991F6A9526
S1130180E2F7822B84BB089521B381E090E002C0A2
S1130190880F991F6A95E2F7822B81BB08958130FD
S11301A091F028F08230D9F0833029F108952BB3EF
S11301B081E090E002C0880F991F6A95E2F780956C
S11301C082238BBB089528B381E090E002C0880F9E
S11301D0991F6A95E2F78095822388BB089525B319
S11301E081E090E002C0880F991F6A95E2F780953C
S11301F0822385BB089522B381E090E002C0880F7A
S1130200991F6A95E2F78095822382BB0895813015
S113021089F028F08230C9F0833011F108952BB3AE
S113022081E090E002C0880F991F6A95E2F7822767
S11302308BBB089528B381E090E002C0880F991F1A
S11302406A95E2F7822788BB089525B381E090E0A0
S113025002C0880F991F6A95E2F7822785BB08952B
S113026022B381E090E002C0880F991F6A95E2F7FB
S1130270822782BB089540E064E081E00E945E0032
S113028040E065E081E00E945E0041E066E081E0DC
S11302900E945E0040E067E081E00E945E008FB74C
S11302A080688FBF8DB182608DB98DB181608DB949
S11302B08DB18B7F8DB98DB1877F8DB98DB18F7ED7
S11302C08DB98DB180628DB98DB180648DB98DB1D8
S11302D080688DB908951F920F920FB60F92112462
S11302E02F933F934F935F936F937F938F939F933A
S11302F0AF93BF93EF93FF938FB1823339F083337E
S113030041F0813351F40E94440007C00E9454001C
S113031004C00E943F000E944F00FF91EF91BF91E3
S1130320AF919F918F917F916F915F914F913F9189
S11303302F910F900FBE0F901F9018950E943900B7
S11103400E9449000E943B010895F894FFCFEB
S9030000FC
