:100000000C942A000C9434000C9434000C943400AA
:100010000C9434000C9434000C9434000C94340090
:100020000C9434000C9434000C9434000C94340080
:100030000C9434000C94F2000C9434000C943400B2
:100040000C9434000C9434000C9434000C94340060
:100050000C94340011241FBECFE5D8E0DEBFCDBF25
:100060000E9439000C941C010C9400000E9417019E
:10007000FFCF0E94360080E090E00895442319F0FD
:100080004130C9F10895813091F028F08230D9F0E3
:10009000833029F108952AB381E090E002C0880FEF
:1000A000991F6A95E2F7809582238ABB089527B34A
:1000B00081E090E002C0880F991F6A95E2F7809571
:1000C000822387BB089524B381E090E002C0880FAB
:1000D000991F6A95E2F78095822384BB089521B326
:1000E00081E090E002C0880F991F6A95E2F7809541
:1000F000822381BB0895813089F028F08230C9F0D5
:10010000833011F108952AB381E090E002C0880F96
:10011000991F6A95E2F7822B8ABB089527B381E085
:1001200090E002C0880F991F6A95E2F7822B87BB87
:10013000089524B381E090E002C0880F991F6A956A
:10014000E2F7822B84BB089521B381E090E002C0E6
:10015000880F991F6A95E2F7822B81BB089541E0D1
:1001600060E080E00E943E0041E065E081E00E94A6
:100170003E0040E066E081E00E943E0041E067E032
:1001800081E00E943E008DB182608DB98DB18160A9
:100190008DB98DB18B7F8DB98DB1877F8DB98DB1C3
:1001A00080618DB98DB180628DB98DB180648DB95A
:1001B00008958FB9779BFECF08958BB18D7F8BB952
:1001C0008BB18E7F8BB98AB180688AB98AB1806120
:1001D0008AB980B5866880BD87E689B98FB780689F
:1001E0008FBF08951F920F920FB60F9211242F9375
:1001F0003F934F935F936F937F938F939F93AF93AF
:10020000BF93EF93FF938CB10E94D900FF91EF91C0
:10021000BF91AF919F918F917F916F915F914F911E
:100220003F912F910F900FBE0F901F9018950E9435
:0C023000DD000E94AF000895F894FFCF9D
:00000001FF
